:020000040000FA
:06000000D0EF0EF012002B
:020006001200E6
:080008009EAA02D0B9EF0BF033
:020010001200DC
:020012000000EC
:0100140000EB
:08001800F2A402D040EF0BF04E
:0C0020001200D08E9F8AF28EF28C12002B
:04002C000600BC1EF0
:1000300000001E0E00000B000000140000002E0E39
:1000400000000100000012000000290E0000020064
:1000500000009A1E000000070000220000007C1E25
:100060000000000E00001E000000F61D0000000A47
:0600700000008600000004
:0A0076000F010051030A10E0010A17
:100080000AE0030A01E00FD00701215102E1010E4D
:10009000216F0AD808D0BBDA0701216F04D09CDA9F
:1000A0000701216B00D01200D9CFE6FFE1CFD9FFC5
:1000B000030EE126DE6ADD6A0F0113510E012919D4
:1000C00004E10F0114510E012A1902E1296B2A6B78
:1000D000130E086E096A29CE0DF02ACE0EF0A6EC9A
:1000E0000CF00F0115510624176F16510720186FD9
:1000F00017CFE9FF18CFEAFF120EEB50E76E020EA2
:10010000E7CFDBFFDB0412E0D9CFE9FFDACFEAFF6C
:10011000EE2A000EED22EECF14F0EDCF15F01351C4
:10012000141802E11451151801E108D00E01292B11
:10013000000E2A23020EDB50BFE00AD8030EE15C5A
:1001400002E2E16AE552E16EE552E7CFD9FF120023
:10015000D9CFE6FFE1CFD9FF030EE12617CFE9FFA4
:1001600018CFEAFF080EE926000EEA22EE2AEF2257
:1001700017CFE9FF18CFEAFFEF500701006F17CF45
:10018000E9FF18CFEAFF010EEB50016F17CFE9FF2F
:1001900018CFEAFF020EE926000EEA22EECF14F095
:1001A000EFCF15F015C014F0156A14C002F717CF81
:1001B000E9FF18CFEAFF020EE926000EEA22EECF91
:1001C00014F0EFCF15F01450036F17CFE9FF18CFDD
:1001D000EAFF010EEB50050808E017CFE9FF18CF42
:1001E000EAFF010EEB50060827E117CFE9FF18CF11
:1001F000EAFF060EE926000EEA22EECF16F0EFCF58
:1002000017F0010ED89016361736E806FBE10F01FD
:1002100019511624E96E1A511720EA6EEECF14F028
:10022000EFCF15F017CFE9FF18CFEAFF040E14C087
:10023000EBFF050E15C0EBFF17CFE9FF18CFEAFF64
:10024000040EE926000EEA22EECF14F0EFCF15F0EF
:1002500015C014F0156A14C004F717CFE9FF18CFC2
:10026000EAFF040EE926000EEA22EECF14F0EFCFEB
:1002700015F014500701056F17CFE9FF18CFEAFFFB
:10028000010EEB50100803E121D9DF6E0DD017CF1E
:10029000E9FF18CFEAFF010EEB500F0803E14FD83A
:1002A000DF6E02D0080EDF6E020EDF5CE66E5BECE6
:1002B00007F0E552DE52F3CFDEFFF4CFDDFFDD5273
:1002C000010EDBCF14F0020EDBCF15F015C014F0D9
:1002D000156ADF5CEA6A000FE96E070EEA2214C0B5
:1002E000EFFFFF0EE76E010EDBCF14F0020EDBCF47
:1002F00015F0E7501416156ADF04EA6A000FE96E7C
:10030000070EEA2214C0EFFFDFCFE6FFF2EC07F0A2
:10031000E5520F01020E006F17CFE9FF18CFEAFF79
:10032000EF50000902E152EC06F0030EE15C02E23C
:10033000E16AE552E16EE552E7CFD9FF1200D9CF6D
:10034000E6FFE1CFD9FF080EE12617CFE9FF18CF6E
:10035000EAFF040EE926000EEA22EECF14F0EFCFFA
:1003600015F0040E0F0B05E0D89015321432E80694
:10037000FBE11450DF6E020EDF02010EF3CFDBFF54
:10038000020EDB6A070EF36E030EF3CFDBFF17CF0F
:10039000E9FF18CFEAFF040EE926000EEA22EECFAD
:1003A00014F0EFCF15F00001156A0F0E1416000EB1
:1003B000D8801454000E155403E2DF2A010EDB2A04
:1003C000010EDBCF06F7070EDB6ADF50F36E070E78
:1003D000DBCFF4FFF350F45C64E2070EDB50166EE3
:1003E000176A17CFE9FF18CFEAFF060EE926000EBD
:1003F000EA221650EE24146E1750EE20156E010EF0
:10040000D89014361536E806FBE10F011951142473
:10041000E96E1A511520EA6E040EEECFDBFF050ED1
:10042000EDCFDBFFFF0EE76E040EDBCF14F0050E01
:10043000DBCF15F0E7501416156A030EDB50EA6A9D
:10044000000FE96E070EEA2214C0EFFF020EDB2A4E
:10045000010EDB50F36E020EDBCFF4FFF350F45CC1
:100460001DE2040EDBCF14F0050EDBCF15F015C036
:1004700014F0156A030EDB28EA6A000FE96E070E16
:10048000EA2214C0EFFF020EDB2A146E030EDBCF4C
:10049000E7FF1450E726030EE7CFDBFF070EDB2A4A
:1004A00094D7010EDB50090FE76E060EE7CFDBFF96
:1004B000DB50146E080EE15C03E200D0E16AE55205
:1004C000E16E1450E552E7CFD9FF1200D9CFE6FF15
:1004D000E1CFD9FF070EE12617CFE9FF18CFEAFFDA
:1004E000040EE926000EEA22EECF14F0EFCF15F04D
:1004F000010ED89014361536E806FBE11450DF6E75
:10050000DE52070EDD6E17CFE9FF18CFEAFF040EAB
:10051000E926000EEA22020EEFCFDBFFDFCF06F75F
:10052000050EDB6A020EDB50F36E050EDBCFF4FF27
:10053000F350F45C3DE2050EDB50020D0F01195142
:10054000F324E96E1A51F420EA6E030EEECFDBFFBE
:10055000040EEDCFDBFF030EDBCF14F0040EDBCF78
:1005600015F015C014F0156A010EDB50EA6A000F91
:10057000E96E070EEA2214C0EFFF010EDB2AFF0E20
:10058000E76E030EDBCF14F0040EDBCF15F0E7505F
:100590001416156A010EDB50EA6A000FE96E070EA9
:1005A000EA2214C0EFFF010EDB2A050EDB2ABAD7C0
:1005B000090EDF24E76E060EE7CFDBFFDB50146E7B
:1005C000070EE15C03E200D0E16AE552E16E1450EF
:1005D000E552E7CFD9FF120042EC0CF00F010F51AA
:1005E000065C146E10510758156E11510858166E9E
:1005F00012510958176E1450075D155008591650BE
:10060000095917500A5902E2010E006F1200D9CFA2
:10061000E6FFE1CFD9FF020EE126DF6ED3EC0AF050
:10062000000954E0010EDB6AD3EC0AF0000936E061
:10063000200E0701205D03E1DE52010EDD6EF0ECBD
:100640000AF0E66E07012051EA6A000FE96E070E14
:10065000EA22E552E750EF6E202B0BCF14F00CCFBF
:1006600015F00A0E0D6E0E6A14C008F015C009F0E0
:100670009AEC0EF008C014F009C015F0166A176A5B
:10068000030ED8901436153616361736E806F9E1FB
:100690001450E66EEBEC0EF0E552C6D7050E0701DE
:1006A000205D03E3010EDB5002E0A3DA0ED017CF8A
:1006B000E9FF18CFEAFFEF50005D04E09ADA070186
:1006C000206B03D030D80701206B1FD042EC0CF018
:1006D0000F010F51065C146E10510758156E115121
:1006E0000858166E12510958176E1450035D1550B4
:1006F0000459165005591750065907E27ADADF6E89
:100700000701206B0F01010E006FDF50146E020E07
:10071000E15C03E200D0E16AE552E16E1450E5527B
:10072000E7CFD9FF1200D9CFE6FFE1CFD9FF070EFF
:10073000E126020E0701205DEA6A000FE96E070E4E
:10074000EA22EF50E66ED950010FE96EDACFEAFFE8
:10075000E552E750EE6EED6A020E205DE66EABDB11
:10076000E552030EF3CFDBFF040EF4CFDBFF010EE7
:10077000DBCF14F0020EDBCF15F014C015F0146AB5
:10078000050E14C0DBFF060E15C0DBFF07012005B8
:10079000EA6A000FE96E070EEA22EF50146E156A3E
:1007A000D950050FE96EDACFEAFF1450EE1215505A
:1007B000ED12030EDBCF14F0040EDBCF15F0050EA7
:1007C000DB50141803E1060EDB5015182EE1800EE5
:1007D000011580080EE117CFE9FF18CFEAFF0E0ED2
:1007E000E926000EEA22EE2AEF2203DA030EDF6E7C
:1007F0001BD00151050A15E0030A13E0090A11E0B4
:100800001F0A0FE0140A0BE0070A09E0020A05E0DC
:10081000030A03E0EED9DF6E07D017D805D0DBD886
:1008200003D05AD9DF6E00D002D0E3D9DF6EDF509B
:10083000146E070EE15C03E200D0E16AE552E16E5E
:100840001450E552E7CFD9FF1200D9CFE6FFE1CF30
:10085000D9FF070EE12617CFE9FF18CFEAFF040EF4
:10086000E926000EEA22EECF14F0EFCF15F0040EC9
:100870000F0B05E0D89015321432E806FBE1145056
:10088000DF6E020EDF02010EF3CFDBFF020EDB6A2A
:10089000030EF36EF3CFDBFF17CFE9FF18CFEAFFAC
:1008A000040EE926000EEA22EECF14F0EFCF15F089
:1008B0000001156A0F0E1416000ED8801454000E95
:1008C000155403E2DF2A010EDB2A010EDB5007017B
:1008D000025D76E1060EDB6ADF50F36E060EDBCFBB
:1008E000F4FFF350F45C6AE2030EDB50EA6A000F97
:1008F000E96E070EEA22EF50E66ED950040FE96E5A
:10090000DACFEAFFE552E750EE6EED6A020EDB2A1F
:10091000010EDB50F36E020EDBCFF4FFF350F45CFC
:1009200025E2030EDB28EA6A000FE96E070EEA22D1
:10093000EF50000EF350166E176A040EDB501610BF
:10094000146E050EDB501710156E040E14C0DBFF7D
:10095000050E15C0DBFF020EDB2A146E030EDBCF83
:10096000E7FF1450E726030EE7CFDBFF060EDB5050
:10097000166E176A17CFE9FF18CFEAFF060EE926B1
:10098000000EEA221650EE24146E1750EE20156E5B
:10099000010ED89014361536E806FBE10F01195107
:1009A0001424E96E1A511520EA6E040EDBCFEEFF17
:1009B000050EDBCFEDFF060EDB2A8ED773D901D0F3
:1009C00018D9070EE15C02E2E16AE552E16EE552F8
:1009D000E7CFD9FF1200D9CFE6FFE1CFD9FF020E52
:1009E000E126030EDF6E07010251146E156A17CF60
:1009F000E9FF18CFEAFF040EE926000EEA22EECF47
:100A000016F0EFCF17F0010ED89016361736E8061D
:100A1000FBE11650141802E11750151852E1010EAF
:100A2000DB6ADBCF14F017CFE9FF18CFEAFF040E23
:100A3000E926000EEA22EECF15F0EFCF16F01550A2
:100A4000145C000E16543BE2DF28EA6A000FE96EE0
:100A5000070EEA22EFCF18F0DF50EA6A000FE96EC6
:100A6000070EEA22EF50000EF3501810E66E010E4A
:100A7000DB50166E176A17CFE9FF18CFEAFF060E94
:100A8000E926000EEA221650EE24146E1750EE20CE
:100A9000156E010ED89014361536E806FBE10F01ED
:100AA00019511424E96E1A511520EA6EE552E750E7
:100AB000EE6EED6A020EDF26010EDB2AB2D7F2D807
:100AC00001D097D8020EE15C02E2E16AE552E16EE4
:100AD000E552E7CFD9FF1200D9CFE6FFE1CFD9FF2A
:100AE000050EE126010EDF6EDB6A020EDB6A030EE5
:100AF000DB6A040EDB6A07010251E66ED950010F72
:100B0000E96EDACFEAFFE552E750EE6EED6AD950B2
:100B1000010FE96EDACFEAFFEE50ED6EEF6A035196
:100B2000146E156AD950010FE96EDACFEAFF14503E
:100B3000EE121550ED120451E66ED950030FE96E16
:100B4000DACFEAFFE552E750EE6EED6AD950030FB7
:100B5000E96EDACFEAFFEE50ED6EEF6A0551E66E10
:100B6000D950030FE96EDACFEAFFE552E750EE6E97
:100B7000ED6A010EDBCF14F0020EDBCF15F017CFBC
:100B8000E9FF18CFEAFFE926000EEA22EECF16F0C1
:100B9000EFCF17F01650141802E11750151819E18D
:100BA000030EDBCF18F0040EDBCF19F017CFE9FFEF
:100BB00018CFEAFFE926000EEA22EECF1AF0EFCFB7
:100BC0001BF01A50181802E11B50191802E16AD8DC
:100BD00002D00FD8DF6EDF50146E050EE15C03E229
:100BE00000D0E16AE552E16E1450E552E7CFD9FF3B
:100BF0001200D9CFE6FFE1CFD9FFE652020EDF6E39
:100C000017CFE9FF18CFEAFF100EE926000EEA22FF
:100C1000EE2AEF2217CFE9FF18CFEAFF0C0EE926E4
:100C2000000EEA22EE2AEF2217CFE9FF18CFEAFFE3
:100C3000100EE926000EEA22EECF14F0EFCF15F0E9
:100C40000F010151166E176A1650145C1750155893
:100C500014E317CFE9FF18CFEAFF120EE926000EC2
:100C6000EA22EF6A17CFE9FF18CFEAFF100EEB6A0E
:100C7000110EEB6A040EDF6E02D0020EDF6E030E61
:100C8000006F42EC0CF006C00FFF07C010FF08C059
:100C900011FF09C012FFDF5000D0E552E552E7CF47
:100CA000D9FF120017CFE9FF18CFEAFF0A0EE92695
:100CB000000EEA22EE2AEF2217CFE9FF18CFEAFF53
:100CC000120EE926000EEA22EF6A17CFE9FF18CFCD
:100CD000EAFF100EEB6A110EEB6A0F01030E006FB4
:100CE00042EC0CF006C00FFF07C010FF08C011FF58
:100CF00009C012FF1200D9CFE6FFE1CFD9FFFB0EEA
:100D0000DBCF07F0FC0EDBCF08F0FD0EDBCF09F0E8
:100D1000FE0EDBCF0AF00A34000E0A1809E6D8806E
:100D2000000E07544B0E0854000E0954000E0A54CE
:100D300006E20F01EE0E0B6F020E0C6F20D0200E9C
:100D4000146EC50E156EFB0E166E176A14C006F0F3
:100D500015C007F016C008F017C009F0DBCF0BF084
:100D6000FC0EDBCF0CF0FD0EDBCF0DF0FE0EDBCF6B
:100D70000EF072EC0CF006C00BFF07C00CFF020E69
:100D8000086E096A0BCF0DF00CCF0EF0A6EC0CF03C
:100D900006C00DFF07C00EFF0F01010E006FF70E1A
:100DA000DBCF03FFF80EDBCF04FFF90EDBCF05FF2F
:100DB000FA0EDBCF06FFF30EDBCF07FFF40EDBCF1F
:100DC00008FFF50EDBCF09FFF60EDBCF0AFFF20EB0
:100DD000DBCF01FFEE0EDBCF13FFEF0EDBCF14FFF7
:100DE000F00EDBCF15FFF10EDBCF16FFD950FB0F56
:100DF000E96EFF0EDA20EA6EEECFE6FFEECFE6FFF9
:100E0000EECFE6FFEFCFE6FF1BEC09F0E552E5522F
:100E1000E552E552E552E7CFD9FF1200D9CFE6FF00
:100E2000E1CFD9FFFD0EDBCFE9FFFE0EDBCFEAFFFE
:100E3000FC0EDBCFEFFFFD0EDBCFE9FFFE0EDBCFBD
:100E4000EAFFEE52FB0EDBCFEFFFFD0EDBCFE9FF3B
:100E5000FE0EDBCFEAFF020EE926000EEA22F90EB3
:100E6000DBCFEEFFFA0EDBCFEDFFFD0EDBCFE9FFB0
:100E7000FE0EDBCFEAFF040EE926000EEA22F70E93
:100E8000DBCFEEFFF80EDBCFEDFFFD0EDBCFE9FF92
:100E9000FE0EDBCFEAFF120EE926000EEA22010E5B
:100EA000EF6EF50EDBCF19FFF60EDBCF1AFFE55222
:100EB000E7CFD9FF1200D9CFE6FFE1CFD9FF080E67
:100EC000E126DE68DD68060EDB6AFE0EDB50F36E9F
:100ED000060EDBCFF4FFF350F45C4DE2060EDB5060
:100EE000EA6A000FE96E070EEA22EF50E76E000E85
:100EF000DFCF14F0010EDBCF15F0E750141A14C049
:100F0000DEFF15C0DDFF010EF36E070EF3CFDBFF32
:100F1000DB5008082DE3DECF14F0DDCF15F0010E15
:100F20001416000E1516040E14C0DBFF050E15C0B6
:100F3000DBFFD9CFE9FFDACFEAFF010E0F0B06E0A6
:100F4000EC52D890ED32EF32E806FAE1D950040FB6
:100F5000E96EDACFEAFFEE50ED1007E0D9CFE9FFF6
:100F6000DACFEAFFEE70A00EED1A070EDB2AD0D71B
:100F7000060EDB2AAAD7DECF14F0DDCF15F015C0A0
:100F800014F0156A020E14C0DBFF030E15C0DBFF60
:100F9000DECF16F0DDCF17F016C017F0166A020E7E
:100FA000DB501610146E030EDB501710156E14C0B4
:100FB000DEFF15C0DDFFD9CFE9FFDACFEAFFDECFD4
:100FC00014F0DDCF15F014C0F3FF15C0F4FF080EC8
:100FD000E15C03E200D0E16AE552E16EE552E7CF61
:100FE000D9FF1200D9CFE6FFE1CFD9FFE652DF6A81
:100FF000FE0EDB50DF5C0DE2DF50EA6A000FE96EA7
:10100000070EEA22EF50E66E98EC09F0E552DF2A6F
:10101000EFD7D0EC09F00DCF14F00ECF15F00A0E7B
:101020000D6E0E6A14C008F015C009F09AEC0EF0AF
:1010300008C014F009C015F0166A176A030ED8909C
:101040001436153616361736E806F9E11450E66EF2
:10105000EBEC0EF0E55242EC0CF006C00FFF07C0BF
:1010600010FF08C011FF09C012FFE552E552E7CF9B
:0C107000D9FF12000701215100D012002E
:04107C00DACFE4FFE4
:10108000E2CFDAFFE9CFE4FFEACFE4FFF6CFE4FFF7
:10109000F7CFE4FFF5CFE4FFF3CFE4FFF4CFE4FFB5
:1010A000FACFE4FF00EE00F0140EE80403E3EECF05
:1010B000E4FFFBD700EE14F0080EE80403E3EECFE4
:1010C000E4FFFBD7E652D9CFE6FFE1CFD9FFE652E6
:1010D00005EC0EF0DF6E0A01C951C92BEA6ACC0F8C
:1010E000E96E0A0EEA22DFCFEFFF400EC95D01E391
:1010F000C96BCB2BA49AE552E552E7CFD9FFE55255
:1011000000EE1BF0080EE80403E3E5CFEDFFFBD78C
:1011100000EE13F0140EE80403E3E5CFEDFFFBD778
:10112000E5CFFAFFE5CFF4FFE5CFF3FFE5CFF5FF1D
:10113000E5CFF7FFE5CFF6FFE5CFEAFFE5CFE9FF23
:10114000E5CFDAFF1100DACFE4FFE2CFDAFFE9CF33
:10115000E4FFEACFE4FFE652D9CFE6FFE1CFD9FFC3
:10116000E6520A01025104E1ACA2FED7AC9A1BD0B0
:101170000151EA6A030FE96E0A0EEA22EFCFDFFFA0
:10118000DF50AD6E012B400E015D01E3016B000EDF
:10119000E76E0219E8AE02D0023503D0E750D880DE
:1011A000025501E20207E552E552E7CFD9FFE552C9
:1011B000E5CFEAFFE5CFE9FFE5CFDAFF1100DACFAF
:1011C000E4FFE2CFDAFFE9CFE4FFEACFE4FFE65243
:1011D000D9CFE6FFE1CFD9FFE6520A01885104E1F9
:1011E00072A2FED7729A1BD08751EA6A890FE96E04
:1011F0000A0EEA22EFCFDFFFDF50736E872B400E1F
:10120000875D01E3876B000EE76E8819E8AE02D0B8
:10121000883503D0E750D880885501E28807E55229
:10122000E552E7CFD9FFE552E5CFEAFFE5CFE9FF89
:10123000E5CFDAFF1100D9CFE6FFE1CFD9FFE652C3
:101240007C0EDF6ED950FB0FE96EFF0EDA20EA6EDE
:10125000EE2A000EEE22EE22EE22D950FB0FE96EAE
:10126000FF0EDA20EA6E040EE76ED890EF36010E1C
:10127000EB36020EEB36030EEB36E706F6E1146AA8
:10128000480E156EE80E166E010E176E14C006F0AD
:1012900015C007F016C008F017C009F0FB0EDBCF31
:1012A0000BF0FC0EDBCF0CF0FD0EDBCF0DF0FE0ED5
:1012B000DBCF0EF0E1EC0DF0FB0E06C0DBFFFC0E09
:1012C00007C0DBFFFD0E08C0DBFFFE0E09C0DBFF21
:1012D000FB0EDBCFE6FFFC0EDBCFE6FFDFCFE6FF4A
:1012E0004FEC0DF0E552E552E552AC8AAC9EE5526A
:1012F000E552E7CFD9FF1200D9CFE6FFE1CFD9FF02
:10130000E6527C0EDF6E670EE66EE66ADFCFE6FF22
:1013100013EC0DF0E552E552E552D08E718E728AD3
:10132000729EA38AA58AE552E552E7CFD9FF120043
:10133000D9CFE6FFE1CFD9FFACA2FED70A01005119
:10134000002BEA6A030FE96E0A0EEA22FE0EDBCFDB
:10135000EFFF022B400E005D01E3006B010E00D099
:10136000E552E7CFD9FF1200D9CFE6FFE1CFD9FF91
:1013700072A2FED70A018651862BEA6A890FE96EAE
:101380000A0EEA22FE0EDBCFEFFF882B400E865DB1
:1013900001E3866B010E00D0E552E7CFD9FF1200C2
:1013A000D9CFE6FFE1CFD9FF060EE126010EF36E9D
:1013B000020EF3CFDBFF030EDB6A020EDBCF14F06D
:1013C000DB06030EDBCF15F001E2DB06145015102F
:1013D00006E0080EE66EB0EC0EF0E552EED7000E19
:1013E0000A01E76E0219E8AE02D0023503D0E750D9
:1013F000D880025523E20151EA6A030FE96E0A0E12
:10140000EA22010EEFCFDBFFACA2FED7010EDB50CC
:10141000AD6EACA2FED70A01012B400E015D01E3C7
:10142000016B000EE76E0219E8AE02D0023503D060
:10143000E750D880025501E20207D1D7010EF36EC2
:10144000040EF3CFDBFF050EDB6A040EDBCF14F0D6
:10145000DB06050EDBCF15F001E2DB06145015109C
:1014600006E0080EE66EB0EC0EF0E552EED7146E14
:10147000060EE15C02E2E16AE552E16E1450E552CB
:10148000E7CFD9FF1200D9CFE6FFE1CFD9FF060E93
:10149000E126010EF36E020EF3CFDBFF030EDB6AD3
:1014A000020EDBCF14F0DB06030EDBCF15F001E2FA
:1014B000DB061450151006E0080EE66EB0EC0EF0D8
:1014C000E552EED7000E0A01E76E8819E8AE02D0A9
:1014D000883503D0E750D880885523E28751EA6ADF
:1014E000890FE96E0A0EEA22010EEFCFDBFF72A22E
:1014F000FED7010EDB50736E72A2FED70A01872B56
:10150000400E875D01E3876B000EE76E8819E8AE39
:1015100002D0883503D0E750D880885501E288078B
:10152000D1D7010EF36E040EF3CFDBFF050EDB6A9D
:10153000040EDBCF14F0DB06050EDBCF15F001E265
:10154000DB061450151006E0080EE66EB0EC0EF047
:10155000E552EED7146E060EE15C02E2E16AE55256
:10156000E16E1450E552E7CFD9FF1200D9CFE6FF64
:10157000E1CFD9FFE652DF6AA39A000E0A01E76EB7
:10158000CB19E8AE02D0CB3503D0E750D880CB558D
:1015900002E2010EDF6EA38ADF5000D0E552E55271
:1015A000E7CFD9FF1200D9CFE6FFE1CFD9FFE6524E
:1015B000DF6A9D9A000E0A01E76E4519E8AE02D077
:1015C000453503D0E750D880455502E2010EDF6E65
:1015D0009D8ADF5000D0E552E552E7CFD9FF1200D7
:1015E000D9CFE6FFE1CFD9FFE6529D9A0A014451D7
:1015F000442BEA6A460FE96E0A0EEA22EFCFDFFFBC
:10160000400E445D01E3446B000EE76E4519E8AE01
:1016100002D0453503D0E750D880455501E2450753
:101620009D8ADF5000D0E552E552E7CFD9FF120086
:10163000D9CFE6FFE1CFD9FFE652A39A0A01CA51FA
:10164000CA2BEA6ACC0FE96E0A0EEA22EFCFDFFF5F
:10165000400ECA5D01E3CA6B000EE76ECB19E8AE1F
:1016600002D0CB3503D0E750D880CB5501E2CB0771
:101670009D8ADF5000D0E552E552E7CFD9FF120036
:10168000DACFE4FFE2CFDAFFE9CFE4FFEACFE4FF0D
:10169000F6CFE4FFF7CFE4FFF5CFE4FFF3CFE4FFAD
:1016A000F4CFE4FFFACFE4FF00EE00F0140EE804FC
:1016B00003E3EECFE4FFFBD700EE14F0080EE804DE
:1016C00003E3EECFE4FFFBD7E652F2940E010E2BBC
:1016D000000E0F23102B1123122B1323142B152371
:1016E000162B17231807195B193504E21851000847
:1016F000000E195508E31A2B000E1B231C231D2373
:10170000C80E186F196B0251031107E005D003CE04
:10171000FAFF0E010251F96EFADF00CEE6FF01CEAC
:10172000E6FF62EC0EF0E552E552E55200EE1BF0EA
:10173000080EE80403E3E5CFEDFFFBD700EE13F05E
:10174000140EE80403E3E5CFEDFFFBD7E5CFFAFF86
:10175000E5CFF4FFE5CFF3FFE5CFF5FFE5CFF7FFEA
:10176000E5CFF6FFE5CFEAFFE5CFE9FFE5CFDAFF0A
:101770001100DACFE4FFE2CFDAFFE9CFE4FFEACFEE
:10178000E4FFF6CFE4FFF7CFE4FFF5CFE4FFF3CFBC
:10179000E4FFF4CFE4FFFACFE4FF00EE00F0140E14
:1017A000E80403E3EECFE4FFFBD700EE14F0080EED
:1017B000E80403E3EECFE4FFFBD7E652D9CFE6FF20
:1017C000E1CFD9FFE65224EC0EF0DF6E0A0143515F
:1017D000432BEA6A460FE96E0A0EEA22DFCFEFFFDB
:1017E000400E435D01E3436B452B9E9AE552E55263
:1017F000E7CFD9FFE55200EE1BF0080EE80403E343
:10180000E5CFEDFFFBD700EE13F0140EE80403E381
:10181000E5CFEDFFFBD7E5CFFAFFE5CFF4FFE5CF4E
:10182000F3FFE5CFF5FFE5CFF7FFE5CFF6FFE5CF17
:0C183000EAFFE5CFE9FFE5CFDAFF110089
:04183C00D9CFE6FF1B
:10184000E1CFD9FF9F0EE66E7EEC0EF0E552FD0E65
:10185000DBCF00FEFE0EDBCF01FEFB0EDBCF02FE78
:10186000FC0EDBCF03FEF194FD0EDBCFE6FFFE0E98
:10187000DBCFE6FF62EC0EF0E552E552E552E7CF32
:10188000D9FF1200D9CFE6FFE1CFD9FF040EE12640
:10189000F29A1ACEDFFF010E1BCEDBFF020E1CCE2A
:1018A000DBFF030E1DCEDBFFF28ADECF06F0DECFBC
:1018B00007F0DECF08F0DDCF09F0DD52DD52040E77
:1018C000E15C03E200D0E16AE552E16EE552E7CF68
:1018D000D9FF1200F29E0E011A6B1B6B1C6B1D6B65
:0418E000F28E120072
:0C18E400006AE86A0EAE7FEF0CF00B6C9F
:1018F0000C1E0D1E0E1E0C220D220E22001E09AE05
:101900008AEF0CF0066C071E081E091E072208222B
:101910000922001EE1EC0DF009BEA1EF0CF000AEB3
:10192000000C066C071E081E091EE86A0722082222
:101930000922026C031E041E051E03220422052236
:10194000000C00BE91EF0CF00188FF0C08C012F0F3
:1019500008500D02F4CF07F0F3CF06F009500E0245
:10196000F4CF09F0F3CF08F00D02F3500726F4503E
:101970000822E86A092212500E02F3500726F4509A
:081980000822E86A0922000CAC
:081988002C0EF66E000EF76E46
:10199000000EF86E0F010900F550336F0900F55085
:1019A000346F03E1336701D03DD00900F5502E6F4D
:1019B0000900F5502F6F0900F550306F090009003C
:1019C000F550E96E0900F550EA6E090009000900BA
:1019D000F550316F0900F550326F09000900F6CF5C
:1019E00035FFF7CF36FFF8CF37FF2ECFF6FF2FCFDB
:1019F000F7FF30CFF8FF0F01315302E1325307E018
:101A00000900F550EE6E3107F8E23207F9D735CF0D
:101A1000F6FF36CFF7FF37CFF8FF0F013307000E81
:061A2000345BBFD7120089
:0A1A2600D9CFE6FFDACFE6FFE1CFEB
:101A3000D9FFE2CFDAFF726A716AFD0EDBB07288FD
:101A4000DBA202D0728C718CDBB4728EDBA602D06A
:101A5000718801D0718ADBA802D0728401D072949F
:101A6000DBBA7186DBAC02D0A38A01D0A39ADBAECD
:101A700002D0A38801D0A398FB0EDB50756EFC0E3C
:101A8000DBCF15F015C014F0156A1450766E728A0B
:0E1A9000718EE552E5CFDAFFE7CFD9FF1200E5
:021A9E00D9CF9E
:101AA000E6FFDACFE6FFE1CFD9FFE2CFDAFFAC6A9B
:101AB000AB6AFD0EDBB0AC88DBA202D0AC8CAB8C89
:101AC000DBB4AC8EDBA602D0AB8801D0AB8ADBB82E
:101AD000AC84DBBAAB86DBAC02D09D8A01D09D9A88
:101AE000DBAE02D09D8801D09D98FB0EDB50AF6E1F
:101AF000FC0EDBCF15F015C014F0156A1450B06E53
:101B0000AC8AAB8EE552E5CFDAFFE7CFD9FF120002
:101B1000D9CFE6FFE1CFD9FFE65243EC0EF0000E3D
:101B2000E66EE66AF00EE66ED80EE66E1EEC0CF07F
:101B3000E552E552E552E552BCEC0DF011EC00F037
:101B40000E01640E0E5D000E0F5905E3E1EC0EF080
:101B50000E010E6B0F6B0E01F40E145D010E155984
:101B600005E3DFEC0DF00E01146B156BE9D7E552C0
:081B7000E552E7CFD9FF120096
:081B78001E0EE66E0E0EE66E75
:101B8000010EE66EE66A1B0EE66E0F0EE66E0A0E9C
:101B9000E66EC80EE66EE66AE66AE66A010EE66E74
:101BA000E66AE66AE66AE66A4B0EE66EE66AE66AA8
:101BB0007BEC06F0146E130EE15E145012003BEF46
:021BC00000F033
:0E1BC200056A046A036A026A200EE76ED89074
:101BD0000636073608360936023603360436053629
:101BE0000B50025C0C5003580D5004580E50055811
:101BF00009E30B50025E0C50035A0D50045A0E506C
:0A1C0000055A062AE72EE4D7120069
:061C0A00D9CFE6FFDACF9E
:101C1000E6FFE1CFD9FFE2CFDAFFE652F20E0E0186
:101C20002B1771AC03D02B9171B02B8171B42B8524
:101C300071B22B877450DF6EDF50E552E552E5CF6D
:081C4000DAFFE7CFD9FF120023
:081C4800D9CFE6FFDACFE6FF79
:101C5000E1CFD9FFE2CFDAFFE652F20E0E012C17E8
:101C6000ABAC03D02C91ABB02C81ABB42C85ABB218
:101C70002C87AE50DF6EDF50E552E552E5CFDAFF3C
:061C8000E7CFD9FF1200BE
:0A1C8600C26A0F01386B396B3A6B2C
:101C90003B6B3C6B600ED36E9B8C96908490949CB7
:101CA000948E959E959C959A9598959695949592D7
:101CB000816892968096929080909294809492926D
:041CC00080921200FC
:0C1CC400D9CFE6FFDACFE6FFE1CFD9FF71
:101CD000E2CFDAFFE652E652FC0EDBCFDEFFDBCFCF
:101CE000DDFF010EDB50D76EDF50D66EE552E552B8
:0C1CF000E552E5CFDAFFE7CFD9FF120084
:041CFC00D9CFE6FF57
:101D0000DACFE6FFE1CFD9FFE2CFDAFFFD0EDB50FD
:101D10007F0BD56ED76AD66AF294FD0EDBAE02D089
:101D2000F28A01D0F29AD58EE552E5CFDAFFE7CFFD
:041D3000D9FF1200C5
:0C1D3400056A046A100EE76ED8900836AD
:101D40000936043605360D50045C0E50055805E37F
:101D50000D50045E0E50055A082AE72EF0D71200E7
:101D6000FF0EE3501C6E480E01D04C0EE76EE72EBE
:101D7000FED7E76AE72EFED71C2EF7D70000120029
:101D8000380EF36E00EE00F00F0E01D81200EA607C
:101D900002D0EE6AFCD7F350E9601200EE6AFCD77D
:101DA00010EE60F020EE60F0F86A019CC4EC0CF0DC
:0C1DB00003EC00F088EC0DF0FBD71200F3
:041DBC000E012E6B7B
:101DC00012000E012E0503E12E6B849003D0010E4C
:061DD0002E6F848012005A
:0A1DD600FF0EE350E84E120000007B
:0C1DE00000D000D000D0E82EFAD712008E
:041DEC00303132332D
:061DF000343536373800DF
:0A1DF60000000000000000000000E3
:101E000000000000000000000000000000000000D2
:101E100000000000000000000000000000000000C2
:101E200000000000000000000000000000000000B2
:101E300000000000000000000000000000000000A2
:101E40000000000000000000000000000000000092
:101E50000000000000000000000000000000000082
:101E60000000000000000000000000000000000072
:0C1E700000000000000000000000000066
:041E7C000000000062
:101E80000000000000000000000000000000000052
:0A1E900000000000C8000000000080
:061E9A0000000000000042
:101EA0000000000000000000000000000000000032
:0C1EB00000000000000000000000000125
:041EBC00EC1D3031B8
:071EC00032333435363700E0
:020000040030CA
:0100010008F6
:0100020001FC
:0100030024D8
:01000500BD3D
:010006008079
:010008000FE8
:01000900C036
:01000A000FE6
:01000B00E014
:01000C000FE4
:01000D0040B2
:00000001FF
